:020000040000FA
:1000000002002700000080FB120051B9000302002B
:100010001175825475830074001200337582037564
:100020008300740012003375D0007581BF759F0086
:10003000020008C09FF59FE473D09F22D083D08236
:10004000C09FE493C0E0740193C0E0740293F59FF5
:10005000227901227800790043FE01C2908018E8DD
:100060002401F8E93400F9C3E89410E99427A2D2F6
:1000700065D03340EAC290780079008008E8240116
:10008000F8E93400F9C3E89410E99427A2D265D0C6
:0B0090003340EAD2907800790080CC69
:0400000500000027D0
:00000001FF
