:020000040000FA
:030000000200D328
:03007B000202AFCF
:100083000202DC00000080FB120103B9000302003E
:10009300BD900F00AA82AB83900106781779018087
:1000A30015E493A3AC82AD838A828B83F0A3AA82E7
:1000B300AB838C828D83D8E9D9E77582F775830387
:1000C30074001200E575828675830074001200E5E2
:1000D30075D0007581BF75100075110F759F0002F3
:1000E300008BC09FF59FE473D09F22D083D082C042
:1000F3009FE493C0E0740193C0E0740293F59F22E0
:100103007901223F065B4F666D7D077F6F000C61AF
:1001130088000720EFBE2050071200EE16040012DD
:1001230000EE1F04001200EEFB02001200EE360385
:10013300001200EE5903001200EE6703001200EEF6
:10014300B103002510C582C0E0E51134FFC583C0AB
:10015300E0E510C3958224F810AF088583118582EA
:10016300108008858311858210D2AFCEF0A3E520DD
:10017300F0A37808E608F0A3DEFAEFF0A3E5812404
:10018300FAF8E608F0A3E608F0A3E608F0A30808E7
:10019300E608F0A3E608F0A315811581D0E0FED0B0
:1001A300E0F8158115811581E8C0E0EEC0E02285F5
:1001B3001183851082E0A3FEE0A3F5207808E0A375
:1001C300F608DFFAE0A3FFE0A3C0E0E0A3C0E0E0AD
:1001D300A3C0E0E0A3C0E0E0A3C0E010AF088582C5
:1001E300108583118008858210858311D2AFD08357
:1001F300D0820200EBC0D02510C582C0E0E51134E7
:10020300FFC583C0E0E510C3958224F310AF0885D2
:1002130083118582108008858311858210D2AFC82F
:10022300F0A3E9F0A3EAF0A3EBF0A37908E709F060
:10023300A3D8FAECF0A3EDF0A3EEF0A3EFF0A3D074
:10024300E0F0A3D0E0F0A3D0E0F0A3E520F0A3E535
:10025300F0F0A322851183851082E0C0E0A3E0F9CA
:10026300A3E0FAA3E0FBA37808E0F608A3DFFAE033
:10027300FCA3E0FDA3E0FEA3E0FFA3E0C0E0A3E056
:10028300C0E0A3E0F5D0A3E0F520A3E0A3F5F010D0
:10029300AF088583118582108008858311858210BC
:1002A300D2AFD082D083D0E0F8D0E032C0E074F295
:1002B3001201F8E58AA2E15016120128A291400F1B
:1002C30043FE01639001790B7A0B7B0F120140759A
:1002D3008A00C2EB7F01020257C0E0C0D0C2AFE583
:1002E300E9A2E6500353E9BF759B0075E1EC75E1A4
:1002F300E3D2AFD0D0D0E0327AE87B03801EE8248B
:10030300FFF8E934FFF9C3E89401E99400A2D26548
:10031300D03350EAEA24FFFAEB34FFFBC3EA94013B
:10032300EB9400A2D265D0334006781E790080D6C4
:100333000200EBC082C08353BEFBE59DA2E650FAE8
:1003430012012853C6F853C6BFE59EA2E640FAD071
:1003530083D0820200EB439A10438D02438C02D276
:10036300AF0200EBC082C083C2AF906189E04460FA
:10037300F09061FA7409F09061B27415F09061AE77
:100383007400F09061A3E0D2E6F0439A0190618F8C
:100393007451F09061727407F09061737420F0757A
:1003A300E1EC75E1E3D2AFD083D0820200EB74F6C7
:1003B30012014675E1EC75E1E3906193E05422701C
:1003C300F875E1EE5391FD780080138808750900F4
:1003D300EA2508F582EB3509F583E0F5D908E8C38A
:1003E3009940E875E1E9E591A2E150FA7591FD7F45
:1003F300020201B212011C12012E12013412013A3F
:100403009061747450F09061757420F07901120159
:100413002280FE53F4F343FE0C0200EB74F6120148
:10042300467800890875090074002508F582740F61
:100433003509F583E0FA800BC293EAC333FAC2921B
:10044300D29208E8C394085009EAA2E750EAD2938B
:0704530080E87F020201B204
:04000005000000D324
:00000001FF
